:020000020000FC
:1000000011E000E007B90FEF04B90AB908B900D050
:1000100050E030E040E008950FEF0DBF04E00EBF68
:1000200026B1209520FDF4DF00E026FD0160052BC0
:1000300000FFF6CF51603068406852FD08C020FDD7
:100040003F7E53FD04C021FD0ED022FD29D054FD7A
:1000500008C020FD4F7E53FD04C024FD11D025FDB6
:1000600022D01BD0DDCF5260339530FD089531FF93
:10007000089532FD089533FF089540645070089547
:100080005860439540FD089541FF089542FD08954D
:1000900043FF089530645070089535B94BB9089501
:0C00A00054603062089550614062089581
:00000001FF
