:020000020000FC
:100000000FE50DBF04E00EBF11E000E004BB0FEFF1
:1000100007BB01BB05BB5ED023B3209526FD5AD09C
:1000200000E026FD0160072B00FFF6CF71605068ED
:10003000606872FD08C020FD5F7E73FD04C021FD75
:1000400020D022FD41D074FD08C020FD6F7E73FDDD
:1000500004C024FD24D025FD3AD002D02ED0DCCF20
:1000600072FF06C0032F041B07FF02C0506470E03C
:1000700074FF06C0042F031B07FF02C0606470E01A
:10008000089572605061339530FD089531FF0895F1
:1000900032FD089533FF08956064707008957860AC
:1000A0006061439540FD089541FF089542FD089524
:1000B00043FF0895506470700895032F052B08BB0B
:1000C000042F062B02BB089574605062089570617E
:1000D0006062089570E030E040E050E060E0089534
:00000001FF
