:020000020000FC
:1000000061E070E08FEF0FE50DBF04E00EBF0FEF72
:1000100004BB01BB48E058E030E001D0FECF042F24
:100020001AD0402F5CD00895042F37D0402F57D0DE
:100030000895381301C005C03395052F0CD0502FFB
:100040004ED00895371301C005C03A95052F25D02D
:10005000502F45D00895E1E3F0E0E00F00E0F01FFD
:100060000994000009C00AC000000AC00BC00CC0FF
:1000700000000CC00DC00EC009E00EC006E00CC0B0
:1000800005E00AC001E008C004E006C00AE004C0C0
:1000900008E002C002E000C00895E3E5F0E0E00FF0
:1000A00000E0F01F099400000DC012C0000008C05D
:1000B0000DC012C0000002C007C00CC009E00EC095
:1000C00006E00CC005E00AC001E008C004E006C07C
:1000D0000AE004C008E002C002E000C0089545BB89
:1000E00052BB01D0089510E02AEF160F08F0FDCFA3
:0A00F00010E0260F08F0F9CF089584
:00000001FF
